{
  "_format": "hh-sol-artifact-1",
  "contractName": "Wallet",
  "sourceName": "contracts/Wallet.sol",
  "abi": [
    {
      "stateMutability": "payable",
      "type": "fallback"
    },
    {
      "inputs": [
        {
          "internalType": "address",
          "name": "",
          "type": "address"
        }
      ],
      "name": "Wallets",
      "outputs": [
        {
          "internalType": "uint256",
          "name": "",
          "type": "uint256"
        }
      ],
      "stateMutability": "view",
      "type": "function"
    },
    {
      "inputs": [],
      "name": "getBalance",
      "outputs": [
        {
          "internalType": "uint256",
          "name": "",
          "type": "uint256"
        }
      ],
      "stateMutability": "view",
      "type": "function"
    },
    {
      "inputs": [
        {
          "internalType": "address payable",
          "name": "_to",
          "type": "address"
        },
        {
          "internalType": "uint256",
          "name": "_amount",
          "type": "uint256"
        }
      ],
      "name": "withdrawMoney",
      "outputs": [],
      "stateMutability": "nonpayable",
      "type": "function"
    },
    {
      "stateMutability": "payable",
      "type": "receive"
    }
  ],
  "bytecode": "0x608060405234801561001057600080fd5b50610573806100206000396000f3fe6080604052600436106100385760003560e01c806312065fe014610096578063af154011146100c1578063f274c897146100fe57610094565b3661009457346000803373ffffffffffffffffffffffffffffffffffffffff1673ffffffffffffffffffffffffffffffffffffffff168152602001908152602001600020600082825461008b91906103c8565b92505081905550005b005b3480156100a257600080fd5b506100ab610127565b6040516100b8919061039c565b60405180910390f35b3480156100cd57600080fd5b506100e860048036038101906100e391906102e5565b61016d565b6040516100f5919061039c565b60405180910390f35b34801561010a57600080fd5b506101256004803603810190610120919061030e565b610185565b005b60008060003373ffffffffffffffffffffffffffffffffffffffff1673ffffffffffffffffffffffffffffffffffffffff16815260200190815260200160002054905090565b60006020528060005260406000206000915090505481565b6000803373ffffffffffffffffffffffffffffffffffffffff1673ffffffffffffffffffffffffffffffffffffffff16815260200190815260200160002054811115610206576040517f08c379a00000000000000000000000000000000000000000000000000000000081526004016101fd9061037c565b60405180910390fd5b806000803373ffffffffffffffffffffffffffffffffffffffff1673ffffffffffffffffffffffffffffffffffffffff1681526020019081526020016000206000828254610254919061041e565b925050819055508173ffffffffffffffffffffffffffffffffffffffff166108fc829081150290604051600060405180830381858888f193505050501580156102a1573d6000803e3d6000fd5b505050565b6000813590506102b5816104f8565b92915050565b6000813590506102ca8161050f565b92915050565b6000813590506102df81610526565b92915050565b6000602082840312156102f757600080fd5b6000610305848285016102a6565b91505092915050565b6000806040838503121561032157600080fd5b600061032f858286016102bb565b9250506020610340858286016102d0565b9150509250929050565b60006103576012836103b7565b9150610362826104cf565b602082019050919050565b61037681610496565b82525050565b600060208201905081810360008301526103958161034a565b9050919050565b60006020820190506103b1600083018461036d565b92915050565b600082825260208201905092915050565b60006103d382610496565b91506103de83610496565b9250827fffffffffffffffffffffffffffffffffffffffffffffffffffffffffffffffff03821115610413576104126104a0565b5b828201905092915050565b600061042982610496565b915061043483610496565b925082821015610447576104466104a0565b5b828203905092915050565b600061045d82610476565b9050919050565b600061046f82610476565b9050919050565b600073ffffffffffffffffffffffffffffffffffffffff82169050919050565b6000819050919050565b7f4e487b7100000000000000000000000000000000000000000000000000000000600052601160045260246000fd5b7f496e73756666696369656e742066756e64730000000000000000000000000000600082015250565b61050181610452565b811461050c57600080fd5b50565b61051881610464565b811461052357600080fd5b50565b61052f81610496565b811461053a57600080fd5b5056fea26469706673582212202640a25c54751e078b6ce76f5c514e7626996c5b815ee952ec8ecd880b8dac4964736f6c63430008040033",
  "linkReferences": {},
  "deployedLinkReferences": {}
}